:020000040800F2
:1000000000500020090B0008590A00085D0A00088A
:10001000610A0008650A0008690A0008000000007B
:100020000000000000000000000000006D0A000851
:10003000710A000800000000750A0008790A00082B
:10004000510B0008510B0008510B0008510B000820
:10005000510B0008510B0008510B0008510B000810
:10006000510B0008510B0008510B0008510B000800
:10007000510B0008510B0008510B0008510B0008F0
:10008000510B0008510B0008510B0008510B0008E0
:10009000510B0008510B0008510B0008510B0008D0
:1000A000510B0008510B0008510B0008510B0008C0
:1000B000510B0008510B0008510B0008510B0008B0
:1000C000510B0008510B0008510B0008510B0008A0
:1000D000510B0008510B0008510B0008510B000890
:1000E000510B0008510B0008510B000800000000E4
:1000F0000000000000000000000000000000000000
:0C01000000000000000000005FF808F1A3
:10010C0010B5054C237833B9044B13B10448AFF345
:10011C0000800123237010BD70000020000000003F
:10012C00982D000808B5034B1BB103490348AFF3E6
:10013C00008008BD0000000074000020982D00080D
:10014C00034613F8012B002AFBD1181A013870470B
:10015C00704700BF10B5002496B0214620220EA88F
:10016C00039401940794CDE9044406940294CDE9D8
:10017C000844CDE90A44CDE90C4402F0EDF94FF600
:10018C00FF723A4B3A491846C3E90144C3E90444A7
:10019C009C611960DA6001F017FE002862D14FF4FF
:1001AC00805303A93148039301F0C6FF002856D1B0
:1001BC002E4801F057FE00284ED1002301A92B48F0
:1001CC00CDE9013302F05EF8002842D1002360240F
:1001DC001A4607A92548CDE90833CDE90A33CDE9FC
:1001EC000C33079401F0AEFE80BB042207A91F4814
:1001FC0001F0A8FE38BB082207A91C4801F0A2FE9A
:10020C00F0B907A90C22194801F09CFEA8B90023EB
:10021C004FF400520EA91548CDE90E33CDE9103339
:10022C0012931593139202F04FF808B1FFF790FF59
:10023C000E4800F06DFB16B010BDFFF789FFE6E726
:10024C00FFF786FFDDE7FFF783FFD4E7FFF780FFBB
:10025C00CBE7FFF77DFFB9E7FFF77AFFADE7FFF7D5
:10026C0077FFA5E7FFF774FF99E700BF8401002033
:10027C00002C014000234FF0804110B51F4A8AB07A
:10028C0010460193CDE90233CDE90433CDE90633B1
:10029C00CDE90833C2E90133C2E90333936111603C
:1002AC0001F0E0FD30BB002301A91448CDE9013376
:1002BC0001F0E8FFD8B9002360241A4603A90F48BF
:1002CC00CDE904330793039401F03CFE60B903A914
:1002DC0004220A4801F036FE08B1FFF739FF07483F
:1002EC0000F016FB0AB010BDFFF732FFEFE7FFF787
:1002FC002FFFE0E7FFF72CFFD5E700BFC40100207C
:10030C0030B500224FF460240121114B114D85B002
:10031C001846CDE9012203929A601A731A755A6035
:10032C001D60DC61196100F057FC68B900230122E3
:10033C0001A907480193CDE9022300F00BFE08B197
:10034C00FFF706FF05B030BDFFF702FFEEE700BF79
:10035C00400100200024014000224FF4804138B5B8
:10036C000A4B0B4D0B4C1846C3E90222C3E905227C
:10037C00C3E90722C3E90054196101F00BF800B975
:10038C0038BDBDE83840FFF7E3BE00BF9800002041
:10039C0000540040A086010000224FF4804138B583
:1003AC000A4B0B4D0B4C1846C3E90222C3E905223C
:1003BC00C3E90722C3E90054196100F0EBFF00B94F
:1003CC0038BDBDE83840FFF7C3BE00BFEC000020CD
:1003DC0000580040A086010038B500224FF4E135EA
:1003EC000C21094B094C1846C3E900455961C3E976
:1003FC0002221A61C3E9062201F090FF00B938BD50
:10040C00BDE83840FFF7A4BE0402002000440040C1
:10041C0010B54FF480724FF0FF34074B0749184664
:10042C00C3E900149A6001F051FC00B910BDBDE89D
:10043C001040FFF78DBE00BF700100200028004067
:10044C002DE9F041002488B0CDE90444CDE90644FF
:10045C002E4B2F4D9A692F4E42F010029A619A69D9
:10046C00284602F010020092009A9969224641F047
:10047C002001996199694FF0010801F02001019167
:10048C0001999969022741F004019961996901F078
:10049C00040102910299996941F0080199619B69E3
:1004AC004FF2303103F008030393039B00F06EFF0F
:1004BC00224630464FF4805100F068FF4FF4005351
:1004CC0004A915480493CDE9054400F065FE062304
:1004DC0004A928460493CDE9054400F05DFE4FF2D3
:1004EC003033284604A9CDE904380694079700F068
:1004FC0053FE4FF4805304A93046CDE90584079789
:10050C00049300F049FE08B0BDE8F08100100240F1
:10051C00000C0140000801400010014010B4019C87
:10052C00401AE41A04FB00F0521A90FBF2F010BCD3
:10053C001844704738B5104CFFF70CFEFFF79AFEC5
:10054C002046002101F0DCFC2046042101F0D8FCFF
:10055C000A4D2046082101F0D3FC20460C2101F065
:10056C00CFFC2846002101F0CBFC2846BDE83840E2
:10057C00042101F0C5BC00BF84010020C40100208F
:10058C00642928BF64214FF6FF72002310B504467E
:10059C0082B00092084664221946FFF7BFFF012C77
:1005AC0013D0022C0CD0032C19D0042C1CD0052CED
:1005BC0010D0062C07D14FF0804380B2986302E034
:1005CC000C4B80B2986302B010BD0A4B80B25863DA
:1005DC0002B010BD4FF0804380B25863F3E7054B77
:1005EC0080B2D86302B010BD024B80B2186402B066
:1005FC0010BD00BF002C014000B585B00246084973
:10060C0001A801F0B1FF01A8FFF79AFD01A982B280
:10061C004FF0FF33034801F0EBFE05B05DF804FB2F
:10062C00D02D00080402002010B582B003226946C8
:10063C00144800F091FB01224FF40071124800F0B5
:10064C0025F800240120A1B20444FFF799FF0120F2
:10065C0000F0B0FA642CF5D100224FF400710A4876
:10066C0000F014F821460120013CFFF789FFA4B2E9
:10067C00012000F09FFA002CF4D1E920FFF7BCFF19
:10068C0002B010BD40010020000C014000F07EBE05
:10069C0009204FF4803130B50023012202254FF49C
:1006AC00E01495B0CDE90A010AA80C9305930193C7
:1006BC000D930F93CDE90633CDE90833CDE9023321
:1006CC00049312910E92CDE91025139400F020FFA3
:1006DC0000BB002302210F244FF4806205A8CDE952
:1006EC0005410793CDE9082301F00AF978B90321F4
:1006FC004FF400724FF4004301A8CDE901120393AB
:10070C0001F0EAF908B1FFF723FD15B030BDFFF792
:10071C001FFDECE7FFF71CFDDBE700BF08B5FFF79B
:10072C008FFEFFF707FFFFF7B3FFFFF7E9FDFFF7BA
:10073C0013FEFFF731FEFFF76BFEFFF74DFEFFF7E1
:10074C0073FFFCE7002310B501681D4A88B0914285
:10075C00CDE90433CDE9063301D008B010BDF32048
:10076C00032403F1804303F504339A6904A942F48A
:10077C0000729A619A6902F400720192019A9A6964
:10078C0042F004029A619A6902F004020292029AFF
:10079C009A6942F008029A619B69049003F008037D
:1007AC0003930848039B059400F0F6FC012304A96D
:1007BC000548CDE9043400F0EFFC08B010BD00BFD3
:1007CC000024014000080140000C0140002330B51A
:1007DC000268264989B08A42CDE90433CDE9063353
:1007EC0024D0234B9A4201D009B030BD4FF4406065
:1007FC00032212251F4C04A9A36943F00803A3612B
:10080C00A369049003F0080302931B48029B05950F
:10081C00079200F0C1FCE36943F48003E361E369F0
:10082C0003F480030393039B09B030BDC020032263
:10083C001225104C04A9A36943F00803A361A36912
:10084C00049003F0080300930B48009B0595079256
:10085C0000F0A2FCE36943F40013E361E36903F4E1
:10086C0000130193019B09B030BD00BF0054004040
:10087C000058004000100240000C014002680C4B74
:10088C009A4200D0704700B583B000F03BFE0120C7
:10089C00084B0949DA6942F00062DA61DB6903F05E
:1008AC0000630193019B086003B05DF804FB00BF7B
:1008BC0000280040001002403C0442420268094BF0
:1008CC009A4200D0704703F564439A6982B042F4AF
:1008DC0000629A619B6903F400630193019B02B06F
:1008EC00704700BF002C01400368B3F1804F00D06B
:1008FC00704703F50433DA6982B042F00102DA6121
:10090C00DB6903F001030193019B02B0704700BF48
:10091C00002330B502682C4989B08A42CDE90433F2
:10092C00CDE9063337D0B2F1804F01D009B030BDDC
:10093C004FF400400224254B04A99A6942F00402AA
:10094C009A619A6902F004020292029A9A6942F040
:10095C0008029A619B69049003F0080300F180403F
:10096C00039300F50840039B0594079400F014FCD6
:10097C00082304A9164804930594079400F00CFC72
:10098C00144A536823F4407343F0E06343F48073D8
:10099C00536009B030BD02244FF4706503F18043FD
:1009AC0003F504339A6904A942F004029A619B6925
:1009BC00094803F0040301930495019B05940794E3
:1009CC0000F0EAFB09B030BD002C014000100240E1
:1009DC00000C0140000001400008014070B50024EB
:1009EC000268184B86B09A42CDE90244CDE9044422
:1009FC0001D006B070BD04210226032503F5E633B1
:100A0C00DA69114842F40032DA61DA6902F4003230
:100A1C000092009A9A690A439A619B6902910B4071
:100A2C00019302A9019B0396059500F0B5FB0823E1
:100A3C0005480DEB0301CDE90344029300F0ACFB38
:100A4C0006B070BD0044004000080140704700BF74
:100A5C00FEE700BFFEE700BFFEE700BFFEE700BFFA
:100A6C00704700BF704700BF704700BF00F090B8E0
:100A7C000C4A08B5136833B169461844884209D842
:100A8C001060184608BD08490B46116069461844A9
:100A9C008842F5D901F036FD0C224FF0FF3302608D
:100AAC00184608BD8C0000205002002030B44FF4D2
:100ABC001F054FF000640E4B0E4A19680E4841F0AA
:100ACC000101196059680A405A601A6822F0847250
:100ADC0022F480321A601A6822F480221A605A6852
:100AEC0022F4FE025A609D60846030BC704700BFE7
:100AFC00001002400000FFF800ED00E0002103E0D0
:100B0C000B4B5B58435004310A480B4B42189A422A
:100B1C00F6D30A4A02E0002342F8043B084B9A42FF
:100B2C00F9D3FFF7C3FF01F0F3FCFFF7F7FD7047B4
:100B3C002C2E000800000020700000207000002007
:100B4C004C020020FEE7000038B54FF47A730D49D3
:100B5C000D4A09781268B3FBF1F30546B2FBF3F0CA
:100B6C0000F0BEFA08B90F2D01D9012038BD04469A
:100B7C00024629464FF0FF3000F07CFA034B20462A
:100B8C001D6038BD0400002000000020080000207B
:100B9C00034A044B11681B780B441360704700BF69
:100BAC004402002004000020014B1868704700BF6D
:100BBC004402002038B50446FFF7F6FF631C0546D7
:100BCC0002D0044B1B781C44FFF7EEFF401BA042E5
:100BDC00FAD338BD04000020002871D0836A70B5A8
:100BEC000446002B62D023689A68D00749D4A26AC5
:100BFC00D20640D4A26A616822F48852E669A068E1
:100C0C0022F00202257B42F002023143B0F5807FD4
:100C1C00A26241EA4502217D5DD0012800F0878067
:100C2C00012900F093805868494920F469405860C4
:100C3C0000209D68294011439960D96A454D21F4E3
:100C4C0070010143D9629B681D40AA423AD0012031
:100C5C00A36A23F0120343F01003A362E36A034375
:100C6C00E36270BDA36A43F01003A362E36A43F02E
:100C7C000103E362A36AA36A012043F01003A36299
:100C8C0070BD9A6822F001029A60FFF78DFF05464D
:100C9C0004E0FFF789FF401B0228E3D823689A6819
:100CAC00D107F6D4A26AD206E5D4A3E7C36280F8D2
:100CBC002430FFF747FD23689A68D007E1D496E704
:100CCC00012070470020E062A36A23F0030343F085
:100CDC000103A36270BD01290ED058681C4920F491
:100CEC00694040F4807058609868014011439960E5
:100CFC00216901390805A0E70646F5B9A1694D1E21
:100D0C0046EA453545F400665D68114925F46945A8
:100D1C0035435D609D68B0F5807F01EA050141EACD
:100D2C0002019960E4D00128E2D0002085E7012976
:100D3C0008BF4FF48076E0D0CFE7A16A41F02001E4
:100D4C00A162E16A41F00101E162DDE70026D4E72E
:100D5C00FDF7E1FFFE0E1FFF2DE9F043554B056833
:100D6C0083B09D427ED003F580639D427AD090F88B
:100D7C002430012B00F08D8000239046012201933A
:100D8C00AB680F46D907044680F8242021D44A4B7F
:100D9C004A491B68AA68A1FB031342F001029B0C91
:100DAC00AA600193019B2BB1019B013B0193019B19
:100DBC00002BF9D1FFF7F8FE814605E0FFF7F4FEB2
:100DCC00A0EB0900022857D82568AE6816F001067A
:100DDC00F4D0A36A3A4A23F4706323F0010343F47A
:100DEC0080739542A36258D0A36A23F48013A36244
:100DFC006B685A0505D5A36A23F4405343F480531A
:100E0C00A36200266FF00202A36A206A13F48053D7
:100E1C0018BFE36A2B4918BF23F00603E3622A4B81
:100E2C0084F82460C0E90A132849434601632A6008
:100E3C00A9683A4641F48071A96005F14C0100F0B3
:100E4C0067F9304623689A6802F46022B2F5602F85
:100E5C009A680CBF42F4A00242F480129A6003B06C
:100E6C00BDE8F083134B5B6813F4702F3FF47FAF36
:100E7C00012003B0BDE8F0830120A36A84F824604C
:100E8C0043F01003A362E36A0343E36203B0BDE8DB
:100E9C00F083022003B0BDE8F083064B5A6812F4CD
:100EAC00702FA1D0A26A42F48012A2625B685B052B
:100EBC00A7D5A0E7002401400000002083DE1B43DF
:100ECC0000280140E10E0008350F0008450F00080E
:100EDC00704700BF436A9A6A12F0500F02D01B6A27
:100EEC001B6B18479A6A196842F4007210B59A6223
:100EFC008A6802F46022B2F5602F03D01846FFF71F
:100F0C00E7FF10BD1A7B002AF8D19A6A22F480728E
:100F1C009A629A6AD204F1D49A6A42F001029A62F5
:100F2C00ECE700BF704700BF08B5406AFFF7FAFF57
:100F3C0008BD00BF704700BF08B5436A9A6A1846DF
:100F4C0042F040029A62DA6A42F00402DA62FFF777
:100F5C00F1FF08BD002270B490F8243083B0012B4F
:100F6C0001925FD001234D680468062D80F824306F
:100F7C000A6805EB85034FF01F0625D90C2D47D8C1
:100F8C00233B256B9E4025EA060502FA03F32B430F
:100F9C002363092A8B684FF0070602EB420123D921
:100FAC001E39E5688E408B4025EA06010B43E36051
:100FBC00A2F11003012B22D90023002280F8242057
:100FCC00184603B070BC7047053B656B9E4025EA24
:100FDC00060502FA03F32B43092A63634FF0070655
:100FEC008B6802EB4201DBD825698E408B4025EAE9
:100FFC0006010B432361A2F11003012BDCD81A4B21
:10100C009C4214D0826A012342F020028262D4E70F
:10101C00413BE56A9E4025EA060502FA03F32B43A1
:10102C00E362B6E70223184603B070BC7047A368AE
:10103C001B02C1D4A368102A43F40003A360BBD1E4
:10104C000A4B0B4A1B68A2FB03239B0C03EB830389
:10105C005B000193019B002BAED0019B013B0193E4
:10106C00019B002BF9D1A7E70024014000000020D0
:10107C0083DE1B43184B30B4DB68C3F30223C3F18C
:10108C000705042D03F1040428BF0425062C19D9E7
:10109C004FF0FF34033B9C4022EA04044FF0FF3234
:1010AC00AA4021EA020101FA03F2224312010028AC
:1010BC00D2B20ADB00F1604000F5614080F80023F9
:1010CC0030BC704700242346E8E7044B00F00F00C7
:1010DC0003441A7630BC704700ED00E0FCEC00E0F5
:1010EC000138B0F1807F0DD230B4F02500220721F9
:1010FC00054B064C586084F82350104630BC9A605F
:10110C00196070470120704710E000E000ED00E02E
:10111C00F0B590F82040012C32D0012490F82150E9
:10112C0080F82040A54225D100264FF0020E04681D
:10113C0086632668076CD0F83CC0BD4026F00106DB
:10114C00476880F821E02660CCF804506360C36ADD
:10115C00102F0BBFA260A160E160E2609BB123681D
:10116C0043F00E03236000232268184642F001026C
:10117C002260F0BD0022022380F820201846F0BD2A
:10118C0002231846F0BD236823F004032360236870
:10119C0043F00A032360E6E70A68002A00F0DB80CC
:1011AC002DE9F04F4FF0000A85B05546DFF8D0C15D
:1011BC00DFF8D0E16D4FDFF8D08103E0013532FA72
:1011CC0005F378D00123AB4002EA0304A342F5D126
:1011DC004A68122A00F09E8000F28780022A00F0F2
:1011EC009D807CD9032A69D0112A02D1CB6803F1E6
:1011FC00040AFF2C66D881460368AA000F2606FA5B
:10120C0002FB23EA0B030AFA02F21343C9F800307B
:10121C004A68D30061D5DCF8189025F0030349F037
:10122C000109CCF81890DCF8189003F1804309F010
:10123C000109CDF80C9003F5803305F00309DDF8B6
:10124C000CB04FEA8909D3F808B006FA09F62BEA74
:10125C0006067045019611D0404563D0444EB0420D
:10126C007AD0444EB0420CBF4FF0030B4FF0040B3E
:10127C00019E0BFA09F946EA090601969E603B6845
:10128C00D6034CBF2343A3433B607B6896034CBF00
:10129C002343A3437B60BB68D6024CBF2343A343C9
:1012AC00BB609202FB6815D51C43FC600A680135D3
:1012BC0032FA05F386D105B0BDE8F08FFF2C4FF064
:1012CC00000A98D905F18042083A4368920000F16F
:1012DC00040993E723EA0404FC600A686EE7A2B1F0
:1012EC00012A86D1D1F80CA083E7234EB2420CD050
:1012FC0020D9224EB24208D006F58036B24204D034
:10130C00A6F58016B2427FF474AF8A68E2B94FF04A
:10131C00040A6EE7CB6803F10C0A6AE7CB6803F1A9
:10132C00080A66E74FF0010B0BFA09F946EA0906C1
:10133C000196A3E7A6F58016B242E6D006F58036F4
:10134C00B2427FF456AFE0E7012A0CBF0361436160
:10135C004FF0080A4DE770474FF0020B019E0BFA55
:10136C0009F946EA0906019688E700BF0004014026
:10137C000010014000140140000021100000311049
:10138C000010024000080140000C014002B90904A1
:10139C0001617047002800F09780F8B590F83D3057
:1013AC00044603F0FF02002B00F087802423226800
:1013BC0084F83D30136823F00103136000F06CFBDC
:1013CC0062684B4B9A424BD84A4B98427AD9431E8F
:1013DC005200B3FBF2F248492368A1FB0010596894
:1013EC00800C21F03F0101435960196A013021F052
:1013FC003F0108431862501CC0F30B00042838BF8F
:10140C000420D96921F44F4121F0FF010025202649
:10141C000843D8611968D4E9072021F0C0010243C0
:10142C000A431A609968D4E9030221F4034121F0BC
:10143C00FF0102430A439A60D968D4E9052021F0E0
:10144C00FF0102430A43DA601A68284642F001029F
:10145C001A60256484F83D60256384F83E50F8BD1D
:10146C00264B98422ED94FF49671234D2368A5FB39
:10147C000065AD0C01FB05F15E68214F26F03F06BF
:10148C00A7FB017135435D601D6A890925F03F0595
:10149C00013129431962D969A56821F44F410138FA
:1014AC0021F0FF0195B902EB4202B0FBF2F00130E2
:1014BC00C0F30B00C0B90120A8E780F83C20FFF76F
:1014CC0085F973E70120F8BD0120704702EB820219
:1014DC0002EB8202B0FBF2F00130C0F30B000028EB
:1014EC00E9D040F4404091E740F400408EE700BF63
:1014FC00A08601007F841E0083DE1B43FF083D0095
:10150C00D34D62100122014B1A60704720000E422D
:10151C00002800F055812DE9F041036882B0DD0709
:10152C00044635D5A8494A6802F00C02042A00F09A
:10153C0005814A6802F00C02082A00F0FB806368FF
:10154C00B3F5803F10D0002B00F02081B3F5A02F15
:10155C0000F078819C4B1A6822F480321A601A6869
:10156C0022F480221A6004E0974A136843F4803313
:10157C001360FFF719FB944D064605E0FFF714FBCB
:10158C00801B642800F2F5802B689A03F6D523683B
:10159C009F074DD41A0722D5A369002B00F0BA80FF
:1015AC0001228A4B884D1A60FFF7FEFA064605E0C9
:1015BC00FFF7FAFA801B022800F2DB806B6A9B07AC
:1015CC00F6D5834B834A1B68A2FB03235B0A01936A
:1015DC0000BF019B5A1E0192002BF9D123685D07B5
:1015EC0069D5794BDA69D00000F1EC800125DA6914
:1015FC0042F08052DA61DB6903F080530093009B68
:10160C00754B1A68D10540F1A380E368012B37D0E4
:10161C00002B00F0E780052B6B4B1A6A00F01F8142
:10162C0022F001021A621A6A22F004021A622CE0F9
:10163C00654A516811F00C0F61D0516801F00C0132
:10164C00082959D02369002B00F0EB800122634B51
:10165C005D4D1A60FFF7A8FA064605E0FFF7A4FAFD
:10166C00801B022800F285802B689807F6D52B6822
:10167C00626923F0F80343EAC2032B60236889E70D
:10168C00514A136A43F001031362FFF78DFA4E4E71
:10169C00804641F2883705E0FFF786FAA0EB080098
:1016AC00B84266D8336A9B07F6D525B1464AD3694A
:1016BC0023F08053D361E069D0B1434D6A6802F0E6
:1016CC000C02082A00F0D38002284FF00001444A93
:1016DC0000F0DE801160FFF767FA2C46054604E047
:1016EC00FFF762FA401B022843D823689B01F7D40A
:1016FC00002002B0BDE8F0815268D603A2D4324A71
:10170C001268950739D52269012A36D0012002B01A
:10171C00BDE8F0812D4A2C4D1360FFF745FA0646C3
:10172C0004E0FFF741FA801B022822D86B6A9F075E
:10173C00F7D453E74A68D0037FF501AF224A126809
:10174C0091037FF525AF6268002A7FF421AFDDE7B6
:10175C001A681E4642F480721A60FFF725FA074693
:10176C003368DA053FF551AFFFF71EFAC01B64284A
:10177C00F6D9032002B0BDE8F081134960690A680C
:10178C0022F0F80242EAC0020A6003E703F1804348
:10179C0003F504331A681D4622F480321A601A6865
:1017AC0022F480221A60FFF7FFF9064604E0FFF7E7
:1017BC00FBF9801B6428DCD82B689B03F7D4E6E686
:1017CC000120704700251BE70010024080044242B4
:1017DC0000000020D34D6210007000400000424217
:1017EC006000424203F1804303F504331A6A1E463B
:1017FC0022F001021A621A6A41F2883822F00402BD
:10180C001A62FFF7D1F9074604E0FFF7CDF9C01BC8
:10181C004045AED8336A9807F7D4002D3FF44BAF50
:10182C0044E7344A344D1360FFF7BEF9064604E032
:10183C00FFF7BAF9801B02289BD82B689907F7D4BD
:10184C002368A7E603F18043A3F53C331A6842F4FE
:10185C0080221A601A6842F480321A6089E642F0DB
:10186C0004021A621A6A42F001021A620DE7012898
:10187C003FF44DAF6B68226A03F4803191427FF4E0
:10188C0045AF606A03F47013181A18BF01203EE7C5
:10189C001160FFF789F9064605E0FFF785F9801B13
:1018AC0002283FF666AF2B689901F6D4226AB2F58E
:1018BC00803F05D16B68A16823F400330B436B6048
:1018CC0001250D4B606A5968024321F474110B48D1
:1018DC000A435A6005601C46FFF766F9054605E0A9
:1018EC00FFF762F9401B02283FF643AF23689A01C9
:1018FC00F6D5FDE600004242001002406000424274
:10190C0078B15D4A136803F007038B420BD213685E
:10191C0023F007030B431360136803F007038B4298
:10192C0001D0012070472DE9F041036886B09D0776
:10193C0014D55C0704D5514C626842F4E0626260D5
:10194C001A0704D54D4C626842F4605262604B4CED
:10195C008568626822F0F0022A436260DB07044665
:10196C000D4620D54268454B012A1B686FD0022AD0
:10197C007ED0980727D5414E41F28838736823F002
:10198C00030313437360FFF70FF9074604E0FFF7F7
:10199C000BF9C01B404569D87368626803F00C03EF
:1019AC00B3EB820FF3D1344A136803F00703AB4255
:1019BC000DD9136823F007032B431360136803F04E
:1019CC000703AB4203D0012006B0BDE8F0812368C9
:1019DC00590706D52949E0684A6822F4E0620243B7
:1019EC004A601A0707D5254A2169536823F46053C6
:1019FC0043EAC103536040F20122214B06ACADF81F
:101A0C0004200FCB04E90F001C494A6802F00C03B8
:101A1C00082B1AD1C2F38343234413F8100CD303BD
:101A2C0018D4184B03FB00F3144A17485268174993
:101A3C00C2F30312805C164AC34008681360FFF7B8
:101A4C0083F8002006B0BDE8F081124BECE79F0351
:101A5C0091D4B8E74A680F4BC2F3404203FB00F342
:101A6C00224412F8142CB3FBF2F3DDE70320ABE7AE
:101A7C009E0180D4A7E700BF002002400010024066
:101A8C00B02D000800093D00D82D000808000020EA
:101A9C000000002000127A00044B05495B68054ADF
:101AAC00C3F30223CB5C1068D8407047001002408F
:101ABC00E82D000800000020044B05495B68054A2E
:101ACC00C3F3C223CB5C1068D840704700100240AF
:101ADC00E82D0008000000202DE9F04104460068C4
:101AEC0082B0C5072AD53A4BDA69D1003DD5394BBE
:101AFC0000251A68D20546D5354960680A6A12F481
:101B0C0040720FD000F4407393420BD00127002693
:101B1C000B6A314A23F44070176016600862D807CC
:101B2C0045D460682A4A136A23F440730343136252
:101B3C001DB1D36923F08053D3612068830706D588
:101B4C00234AA168536823F440430B43536010F0BD
:101B5C00100007D000201E4AE168536823F480036C
:101B6C000B43536002B0BDE8F081DA69012542F005
:101B7C008052DA61DB6903F080530193019B154BB2
:101B8C001A68D205B8D41A681E4642F480721A60DC
:101B9C00FFF70AF807463368DB05ADD4FFF704F806
:101BAC00C01B6428F7D9032002B0BDE8F0810E46B3
:101BBC00FEF7FAFF41F288378046336A9A07B0D4B1
:101BCC00FEF7F2FFA0EB0800B842F6D9EBE700BF36
:101BDC0000100240007000404004424210B5044620
:101BEC0040F2012286B0344B0DF1180C022CADF8EA
:101BFC0004200FCB0CE90F0042D0102C1CD0012C70
:101C0C0002D0002006B010BD40F202322B490B6A04
:101C1C001A40B2F5817F4BD003F44073B3F5007FCB
:101C2C003AD0B3F5407FECD10B684FF2244013F45B
:101C3C00003F08BF0020E5E7204B5968186810F0FA
:101C4C008070DFD006A8C1F38342024412F8100C56
:101C5C00CA0329D55B6806A9C3F340430B44184A51
:101C6C0013F8143CB2FBF3F300FB03F0134B5B686B
:101C7C005B02C7D4134B4000A3FB00304008C1E704
:101C8C00FFF71AFF0D4B5B68C3F3813301335B0025
:101C9C00B0FBF3F006B010BD4B6A49F6404013F0B0
:101CAC00020F08BF0020ADE7074B03FB00F0DDE798
:101CBC004FF40040A6E700BFC02D00080010024002
:101CCC0000127A00ABAAAAAA00093D0000286ED027
:101CDC0038B5437C044603F0FF02002B63D002238B
:101CEC0022686374536823F008035360FEF75CFFAB
:101CFC00054605E0FEF758FF401BB0F57A7F4ED83D
:101D0C0023685B681807F5D5FEF74EFF054605E01E
:101D1C00FEF74AFF401BB0F57A7F40D823685A681B
:101D2C009106F5D55968A06841F0100159605968C1
:101D3C0021F00701596020B122490A6B22F00102FF
:101D4C000A632049CA6A22F460720243CA6260685C
:101D5C00421C2ED0996885B221F00F0141EA104146
:101D6C009960DA68120C12042A43DA605A6822F07D
:101D7C0010025A60FEF718FF054605E0FEF714FF47
:101D8C00401BB0F57A7F0AD823685B689B06F5D5B3
:101D9C00012300206373E073A373637438BD0423C1
:101DAC000120637438BD0274FEF768FD97E70120CB
:101DBC0070470120FFF712FF0028F0D0236801388C
:101DCC00C8E700BF006C0040002836D090F83D30CA
:101DDC0070B503F0FF0204460BB302232268204EB9
:101DEC0084F83D30B2421368A569E068616826D07A
:101DFC00B2F1804F18D0A6F59436B24214D006F545
:101E0C008066B24210D023F080032B431360D06263
:101E1C00916201230020536184F83D3070BD80F83D
:101E2C003C20FEF74BFDD8E7A66823F07003334344
:101E3C00266923F440733343E5E701207047A66815
:101E4C0023F070033343266923F44073334323F0A8
:101E5C0080032B431360D062916263691363D8E7EC
:101E6C00002C0140002836D090F83D3070B503F0BE
:101E7C00FF0204460BB302232268204E84F83D3047
:101E8C00B2421368A569E068616826D0B2F1804F50
:101E9C0018D0A6F59436B24214D006F58066B2423C
:101EAC0010D023F080032B431360D0629162012386
:101EBC000020536184F83D3070BD80F83C20FEF763
:101ECC0013FDD8E7A66823F070033343266923F487
:101EDC0040733343E5E701207047A66823F0700395
:101EEC003343266923F44073334323F080032B439D
:101EFC001360D062916263691363D8E7002C0140D0
:101F0C000122036801F01F01186A02FA01F120EAAC
:101F1C0001001862186A0A4A0143934219620AD0F6
:101F2C009A6802F00702062A03D01A6842F00102EE
:101F3C001A60002070475A6C42F400425A64EFE772
:101F4C00002C014090F83C30012B00F0C580F0B41F
:101F5C000223012480F83D3080F83C400C2A36D80E
:101F6C00DFE802F03E353535673535359135353599
:101F7C00070003688F681D6A0E6825F480551D6282
:101F8C001A6A6C4DD3F804C0DC6922F4005224F4B4
:101F9C00E644AB4242EA073244EA062404D14D69D6
:101FAC002CF4804C4CEA851C4D68C3F804C0DC61F1
:101FBC001D641A62DC690D6944F40064DC61D96942
:101FCC0021F48061D961DA6942EA0522DA610023E1
:101FDC00F0BC012280F83C3080F83D201846704758
:101FEC0003688F681D6A0E6825F001051D621A6A68
:101FFC00504DD3F804C09C6922F0020224F0730403
:10200C00AB4242EA070244EA060476D04D68C3F8B4
:10201C0004C09C615D631A629C690D6944F00804FC
:10202C009C61996921F0040199619A692A439A612A
:10203C00CDE703688F681D6A0E6825F010051D62D8
:10204C001A6A3C4DD3F804C09C6922F0200224F497
:10205C00E644AB4242EA071244EA06245BD04D68E0
:10206C00C3F804C09C619D631A629C690D6944F4B9
:10207C0000649C61996921F4806199619A6942EAD2
:10208C0005229A61A3E703688F681D6A0E6825F420
:10209C0080751D621A6A274DD3F804C0DC6922F4DE
:1020AC00007224F07304AB4242EA072244EA0604AD
:1020BC0014D04D68C3F804C0DC61DD631A62DC69BE
:1020CC000D6944F00804DC61D96921F00401D9617F
:1020DC00DA692A43DA617AE702207047CE6822F483
:1020EC000062D1E905752CF4405C42EA06223D43BE
:1020FC0022F480624CEA051CDBE7CF6822F0080270
:10210C00D1E905562CF4407C3A43354322F00402C5
:10211C0045EA0C0C7AE7CE6822F08002D1E905750D
:10212C002CF4406C42EA06123D4322F040024CEA89
:10213C00850C94E7002C014090F83C30012B5AD0D0
:10214C000222F0B40125036880F83D209A680C68DF
:10215C0022F47F4222F07702402C80F83C509A60A7
:10216C0074D04AD9602C2DD056D9702C1AD0B4F515
:10217C00005F0ED1D1E90152CC6899682A4342EA3A
:10218C00042221F47F410A439A609A6842F4804207
:10219C009A600023F0BC012280F83C3080F83D208E
:1021AC0018467047D1E90152CC6899682A4342EA33
:1021BC00042221F47F410A439A609A6842F0770224
:1021CC009A60E6E71C6A4D6824F01004CE681C6225
:1021DC0099691A6A21F4704122F0A00242EA0512B0
:1021EC0041EA063199611A629A6822F0700242F053
:1021FC0067029A60CDE702207047102C04D03DD9BD
:10220C00202C01D0302CC4D19A6844F0070422F061
:10221C00700214439C60BCE7502CBAD11D6A1E6A34
:10222C004C6826F00106CF681E629A6925F00A01F7
:10223C0022F0F00242EA071221439A6119629A686D
:10224C0022F0700242F057029A60A2E71D6A1E6AE1
:10225C004C6826F00106CF681E629A6925F00A01C7
:10226C0022F0F00242EA071221439A6119629A683D
:10227C0022F0700242F047029A608AE7002CC3D029
:10228C0087E700BF90F83C20012A1AD00222F0B454
:10229C00034600250126046880F83D206068D1E9DA
:1022AC00002720F070011143A268284622F080021A
:1022BC003A436160A26083F83D6083F83C50F0BC07
:1022CC0070470220704700BF90F83C30012B22D0A1
:1022DC000246D1E9020310B4002423F440730343F3
:1022EC00486823F480630343086823F400630343C2
:1022FC00086923F480530343486923F400530343D0
:10230C00C86923F48043116803434B64204682F868
:10231C003C4010BC70470220704700BF00285ED0C4
:10232C0038B590F83930044603F0FF02002B51D039
:10233C002422236884F83920DA68E06822F40052F9
:10234C00DA601969A26821F4405101431961D96816
:10235C00D4E9045021F4B0512A4321F00C0102437A
:10236C000A43DA605A69A0691F4922F44072024399
:10237C008B425A6135D0FFF78FFB626800EB80000F
:10238C00920000EB8000B0FBF2F06422174D236842
:10239C00A5FB00C1490902FB110212013232A5FB57
:1023AC000202090101EB5212002520219A601A69E0
:1023BC00284622F490421A615A6922F02A025A6184
:1023CC00DA6842F40052DA60E56384F8391084F874
:1023DC003A1038BD80F83820FEF700FBA8E7012042
:1023EC007047FFF769FBC8E7003801401F85EB51C8
:1023FC00F0B5044690F8390083B020282DD10E4654
:10240C0000292DD001925AB31F4694F83830012B75
:10241C0023D0002001212123E06384F8381084F8B4
:10242C003930FEF7C1FB0546019AA284E28422688A
:10243C00E38C9BB2002B39D0E08CA168013880B2C0
:10244C00B1F5805FE08419D0781C3BD1106801068F
:10245C00FCD5337801365360EAE7022003B0F0BDB7
:10246C00012003B0F0BD13681B060CD4002F33D031
:10247C00FEF79AFB401B874222682DD3781CF2D1C1
:10248C0010680106FCD533882169C3F30803536037
:10249C00002934D10236CBE713685B060BD4DFB1CD
:1024AC00FEF782FB401B8742226815D3781CF3D1C0
:1024BC0013685906FCD52023002084F8393084F8A1
:1024CC003800CBE713681B06C3D42FB1FEF76CFBA7
:1024DC00401B87422268B7D2202100250320D368F5
:1024EC0023F4D073D360536923F00103536184F850
:1024FC00391084F8385084F83A1003B0F0BD013626
:10250C0096E700BF014B1868704700BF0C00002015
:10251C0070B500250C4E0D4CA41BA410A54209D17E
:10252C0000F034FC00250A4E0A4CA41BA410A54252
:10253C0005D170BD56F8253098470135EEE756F8B1
:10254C00253098470135F2E7242E0008242E000888
:10255C00242E0008282E000803460244934200D182
:10256C00704703F8011BF9E70EB46FF0004100B59A
:10257C009CB01DAB02900690079104910848094944
:10258C0053F8042B0591006802A9019300F066F83A
:10259C000022029B1A701CB05DF804EB03B070476C
:1025AC000C0000200802FFFF2DE9F0478E688246E0
:1025BC009E420C469046994637D88A8912F4906F01
:1025CC0031D00223256809696F1A656905EB450549
:1025DC0095FBF3F509F101033B449D4238BF1D46C1
:1025EC00530530D5294600F037FB064650B90C236D
:1025FC004FF0FF30CAF80030A38943F04003A381A9
:10260C00BDE8F0873A46216900F0B6FAA38923F4B5
:10261C00906343F08003A38126613E4426604E46BE
:10262C006561ED1BA5604E4500D94E4632464146CC
:10263C00206800F0ACFAA36800209B1BA360236801
:10264C001E442660DCE72A4600F060FB06460028A4
:10265C00E2D12169504600F0B3FAC8E72DE9F04FFA
:10266C001D468B899DB01F0680460C4616460FD51D
:10267C000B696BB9402100F0EFFA2060206128B99A
:10268C000C23C8F800304FF0FF30C8E040236361E2
:10269C000023099320238DF8293030234FF0010BB0
:1026AC008DF82A30039537463D4615F8013B0BB1A2
:1026BC00252B3ED1B7EB060A0BD0534632462146AA
:1026CC004046FFF771FF013000F0A480099B534492
:1026DC0009933B78002B00F09D8000234FF0FF32D4
:1026EC00CDE90523049307938DF853301A932F46A5
:1026FC00052217F8011B504800F030FA049BD0B9A2
:10270C00D90644BF20228DF853201A0744BF2B2230
:10271C008DF853202A782A2A15D02F4600200A2516
:10272C00079A394611F8013B303B092B4DD9B8B10A
:10273C000FE02F46B8E7404A3D46801A0BFA00F0EE
:10274C0018430490D3E7039A111D12680391002AD1
:10275C0001DB079204E0524243F002030792049318
:10276C003B782E2B0CD17B782A2B33D1039B023751
:10277C001A1D1B680392002BB8BF4FF0FF33059353
:10278C002E4D03223978284600F0E8F938B1402361
:10279C00401B03FA00F0049B013703430493397880
:1027AC00062227487E1C8DF8281000F0D7F9002847
:1027BC0038D0244B13BB039B073323F00703083398
:1027CC000393099B4B4409936DE705FB02320120EF
:1027DC000F46A6E700230A2519460137059338460C
:1027EC0010F8012B303A092A03D9002BC8D00591D7
:1027FC00C6E705FB012101230746F0E703AB009375
:10280C002246114B04A94046AFF30080B0F1FF3FC4
:10281C008146D6D1A3895B063FF535AF09981DB02B
:10282C00BDE8F08F03AB00932246074B04A940464A
:10283C0000F082F8EAE700BFF02D0008F62D000842
:10284C00FA2D000800000000B52500082DE9F0471E
:10285C0091461F468A680B6906469342B8BF1346D9
:10286C00C9F8003091F843200C46DDF8208012B1F5
:10287C000133C9F800302368990642BFD9F80030FB
:10288C000233C9F80030256815F0060507D104F1AC
:10289C00190AE368D9F800209B1AAB4229DC94F89A
:1028AC0043302268003318BF012392062ED404F162
:1028BC00430239463046C047013021D02368E568D1
:1028CC0003F00603042B18BF0025D9F800204FF0A5
:1028DC00000908BFAD1AA368226908BF25EAE5758F
:1028EC009342C4BF9B1AED181A344D451AD10020DF
:1028FC0008E00123524639463046C047013003D127
:10290C004FF0FF30BDE8F0870135C2E73020E11809
:10291C0081F843005A1C94F845102244023382F883
:10292C004310C4E70123224639463046C0470130E4
:10293C00E6D009F10109D8E72DE9F04301F1430C88
:10294C000C46097E85B06E291746064698460C9AA9
:10295C0000F0B38022D8632936D00AD8002900F0C1
:10296C00B980582900F0838004F1420584F84210A4
:10297C0032E0642901D06929F6D120681368050674
:10298C0003F104012AD51B681160002B03DA2D22F8
:10299C005B4284F843206F480A2239E0732900F027
:1029AC009D8008D86F2920D07029DDD1236843F091
:1029BC002003236003E0752917D07829D4D178231C
:1029CC00654884F8453055E0136804F14205191D3B
:1029DC001B68116084F8423001238CE01B6810F0F6
:1029EC00400F116018BF1BB2CFE713682568181D84
:1029FC001060280601D51B6802E06806FBD51B8811
:102A0C006F2914BF0A2208225248002184F843106F
:102A1C006568002DA560C0F29580216821F0040145
:102A2C002160002B3DD1002D40F08E806546082A98
:102A3C000BD12368DB0708D5236962689A42DEBF95
:102A4C00302305F8013C05F1FF35ACEB05032361A0
:102A5C00CDF800803B4603AA21463046FFF7F6FE30
:102A6C0001304DD14FF0FF3005B0BDE8F08339484F
:102A7C0084F84510136821681D1D1B6815600A0633
:102A8C000BD5CA0744BF41F0200121601BB9226855
:102A9C0022F0200222601022B7E74D0648BF9BB2FD
:102AAC00EFE76546B3FBF2F102FB1133C35C05F8AB
:102ABC00013D0B460029F5D1B9E713682568181DAF
:102ACC006169106028061B6801D5196002E06A066E
:102ADC00FBD51980002365462361B9E71368191DDE
:102AEC0011601D6862680021284600F037F808B1B3
:102AFC00401B606063682361002384F84330A7E7C0
:102B0C0023692A4639463046C0470130AAD023688B
:102B1C009B0713D4E068039B9842B8BF1846A3E701
:102B2C0001234A4639463046C04701309AD0013518
:102B3C00E368039A9B1AAB42F2DCEBE7002504F145
:102B4C001909F5E7002BACD1037804F1420584F8A0
:102B5C0042306CE7012E0008122E000810B5C9B2E5
:102B6C0002449042034601D1002303E01C7801305B
:102B7C008C42F6D1184610BD10B5431E0A44914242
:102B8C0000D110BD11F8014B03F8014FF7E7884253
:102B9C0010B501EB020307D8421E99420AD011F876
:102BAC00014B02F8014FF8E78342F5D98118D21A8C
:102BBC00D34200D110BD13F8014D01F8014DF7E7D8
:102BCC0038B50546002943D051F8043C0C1F002BA6
:102BDC00B8BFE41800F0D0F81E4A1368104633B999
:102BEC00636014602846BDE8384000F0C6B8A342C4
:102BFC000BD921686218934201BF1A685B6852189E
:102C0C00226063600460EDE713465A680AB1A24281
:102C1C00FAD919685818A0420BD1206801445818E9
:102C2C0082421960DED110685268014419605A6002
:102C3C00D8E702D90C232B60D4E7206821188A42EC
:102C4C0001BF116852680918216062605C60C9E7B5
:102C5C0038BD00BF9000002070B5CD1C25F00305D9
:102C6C0008350C2D38BF0C25002D064601DBA9427A
:102C7C0003D90C233360002070BD00F07DF8214A8D
:102C8C001468214691B9204C23681BB9304600F0DA
:102C9C0063F820602946304600F05EF8431C24D1CE
:102CAC000C233046336000F068F8E4E70B685B1BDC
:102CBC0018D40B2B0FD90B60CC18CD50304600F02C
:102CCC005CF804F10B00231D20F00700C31AD3D0CD
:102CDC005A42E250D0E74B688C4216BF63601360D7
:102CEC000C46EBE70C464968CCE7C41C24F0030403
:102CFC00A04205D0211A304600F02EF80130CFD07A
:102D0C002560DBE79000002094000020F8B5074612
:102D1C0014460E4621B9BDE8F8401146FFF79CBF9A
:102D2C0022B9FFF74DFF25462846F8BD00F026F8DE
:102D3C00A0420FD221463846FFF78EFF05460028E9
:102D4C00F2D031462246FFF717FF31463846FFF7DF
:102D5C0037FFE9E73546E7E738B50023054C05466C
:102D6C0008462360FDF784FE431C02D1236803B19F
:102D7C002B6038BD480200207047704751F8043C66
:102D8C00181F002BBCBF0B58C0187047F8B500BFFC
:102D9C00F8BC08BC9E467047F8B500BFF8BC08BC30
:042DAC009E46704788
:102DB00002030405060708090A0B0C0D0E0F10107C
:102DC00002030405060708090A0B0C0D0E0F10106C
:102DD0002568750D0A0000000000000000000000DA
:102DE00001020304060708090000000001020304B1
:102DF000232D302B2000686C4C00656667454647E4
:102E00000030313233343536373839414243444566
:102E100046003031323334353637383961626364D5
:042E200065660000E3
:042E24003101000870
:042E28000D01000890
:102E2C000024F4000100000010000000100000203D
:102E3C000000000000000000000000000000000086
:102E4C000000000000000000000000000000000076
:102E5C000000000000000000000000000000000066
:102E6C000000000000000000000000000000000056
:102E7C000000000000000000000000000000000046
:102E8C000000000000000000000000000000000036
:0400000508000B09DB
:00000001FF
